:1000000003C1000032C1000030C100002EC1000059
:100010002CC100002AC1000028C1000026C1000038
:1000200024C1000022C1000020C100001EC1000048
:100030001CC100000C94BD0C18C1000016C10000CA
:1000400014C1000012C1000010C100000EC1000068
:100050000CC100000AC1000008C100000C94730C20
:1000600004C100000C943D0C0C94130CFEC0000065
:10007000FCC00000FAC00000F8C00000F6C000009C
:10008000F4C00000F2C00000F0C00000EEC00000AC
:10009000ECC00000EAC00000E8C00000E6C00000BC
:1000A000E4C00000E2C00000E0C00000DEC00000CC
:1000B000DCC00000DAC00000D8C00000D6C00000DC
:1000C000D4C00000D2C00000D0C00000CEC00000EC
:1000D000CCC00000CAC00000C8C00000C6C00000FC
:1000E000C4C00000000020002300260029002C00CE
:1000F0002F00320000010000030106010901000089
:100100002100240027002A002D00300033000101C7
:100110000000040107010A01000022002500280058
:100120002B002E00310034000201000005010801FF
:100130000B0105050505070508080808020202026B
:100140000A0A080804040404010101010101010173
:100150000303030303030303040707070C0C0C0C3E
:100160000C0C0C0C02020202060606060606060627
:100170000B0B0B0B0B0B0B0B0102102020080810B4
:100180002040102040800201020108040201010207
:1001900004081020408080402010080402018004E0
:1001A000020180402010080402010804020101023B
:1001B0000408102040800102040810204080000044
:1001C0000A0B02090C0D0E080703040100000000D1
:1001D000000000000000000000000000000000001F
:1001E00000000000000000000000121110000000DC
:1001F00000000000000000000000000000000000FF
:1002000000000000810DA71411241FBECFEFD1E222
:10021000DEBFCDBF00E00CBF26E0AEE2B4E001C01F
:100220001D92AE3AB207E1F714E0A0E0B2E0E4E5D7
:10023000F3E300E00BBF02C007900D92AE32B107AE
:10024000D9F711E0C3E0D1E000E006C02197010931
:10025000802FFE010E942C17C230D10780E00807D2
:10026000A9F70E940F0E0C949919CACECF92DF9273
:10027000EF92FF92CF93DF93EC01072E000C880BD7
:10028000990B0E94BE146B017C0120E030E040E439
:100290005FE30E941D1520E030E048E452E40E9434
:1002A0004F160E94B716C617D707D4F020E030E0EB
:1002B00040EA5FE3C701B6010E941D1520E030E06F
:1002C00048E452E40E944F1620E030E040E85FE34B
:1002D0000E94EB150E94B71621E06C177D070CF405
:1002E00020E0822F90E0DF91CF91FF90EF90DF90A0
:1002F000CF9008958F929F92AF92BF92CF92DF924C
:10030000EF92FF920F931F93CF93DF93FC01208115
:100310003181E091DC04F091DD0401E010E02E1762
:100320003F070CF040C0D901AA0FBB1FE091DA04CF
:10033000F091DB04EA0FFB1FA080B18089010095DA
:1003400010950170112720FD20C02CE93FEFEA0134
:100350006B017C014901840E951EB401C50186DF45
:10036000892BB1F48C0E9D1EB401C5017FDF892B52
:1003700041F5BE01680D791DC50178DF23E030E04D
:10038000892B41F40FEF1FEF0EC024E630E0DFCFE2
:1003900021E030E0F6018081918101968217930778
:1003A0009CF491838083C801DF91CF911F910F91BD
:1003B000FF90EF90DF90CF90BF90AF909F908F9085
:1003C000089522E030E0E6CF11821082F7018081AB
:1003D00091810196E6CFAF92BF92CF92DF92EF92DA
:1003E000FF920F931F93CF93DF936C017B018B01DF
:1003F000040F151FEB015E01AE18BF08C017D1072F
:1004000059F06991D601ED91FC910190F081E02DB8
:10041000C6011995892B79F7C501DF91CF911F91FD
:100420000F91FF90EF90DF90CF90BF90AF90089525
:10043000FC01448155816081718182E996E0CBCFD6
:10044000FC01538D448D252F30E0842F90E0821BDA
:10045000930B541710F0CF96089501970895FC015F
:10046000918D828D981761F0A28DAE0FBF2FB11DB7
:100470005D968C91928D9F5F9F73928F90E008950F
:100480008FEF9FEF0895FC01918D828D981731F0C9
:10049000828DE80FF11D858D90E008958FEF9FEF1D
:1004A0000895FC01918D228D892F90E0805C9F4FF3
:1004B000821B91098F73992708958EED94E0F1DFE7
:1004C00021E0892B09F420E0822F0895FC01A48DFE
:1004D000A80FB92FB11DA35ABF4F2C91848D90E066
:1004E00001968F739927848FA689B7892C93A08949
:1004F000B1898C91837080648C93938D848D9813D3
:1005000006C00288F389E02D80818F7D8083089565
:10051000EF92FF920F931F93CF93DF93EC0181E053
:10052000888F9B8D8C8D98131AC0E889F9898081FA
:1005300085FF15C09FB7F894EE89FF896083E8892D
:10054000F98980818370806480839FBF81E090E01F
:10055000DF91CF911F910F91FF90EF900895F62EAC
:100560000B8D10E00F5F1F4F0F731127E02E8C8D46
:100570008E110BC00FB607FCFACFE889F98980818C
:1005800085FFF5CFCE01A2DFF2CFEB8DEC0FFD2F73
:10059000F11DE35AFF4FF0829FB7F8940B8FEA8961
:1005A000FB8980818062D0CFCF93DF93EC01888D6F
:1005B0008823B1F0AA89BB89E889F9898C9185FDE6
:1005C00003C0808186FD0CC00FB607FCF7CF8C916D
:1005D00085FFF2CF808185FFEDCFCE0177DFEACFB7
:1005E000DF91CF91089580E090E0892B21F065DFC5
:1005F00081110E94000080E090E0892B49F080E0AA
:1006000090E0892B29F00E94000081110E940000D7
:1006100080E090E0892B49F080E090E0892B29F080
:100620000E94000081110E94000080E090E0892B70
:1006300049F080E090E0892B29F00E9400008111B0
:100640000C94000008958150823108F05AC0E82FC0
:10065000F0E08827E15DFC4F8F4F0C942C174F037F
:100660005303410347034B03810356035C036003B9
:1006700066036A036E037403780381037C038203B9
:100680008603809180008F77809380000895809109
:1006900080008F7DF9CF80918000877FF5CF84B572
:1006A0008F7784BD089584B58F7DFBCF8091B00096
:1006B0008F778093B00008958091B0008F7DF9CF3F
:1006C000809190008F7780939000089580919000A2
:1006D0008F7DF9CF80919000877FF5CF8091A0002A
:1006E0008F778093A00008958091A0008F7DF9CF2F
:1006F0008091A000877FF5CF809120018F77809334
:1007000020010895809120018F7DF9CF80912001F3
:10071000877FF5CF1F93CF93DF93282F30E0F90128
:10072000E254FE4F8491F901E858FE4FD491F9014B
:10073000EE5CFE4FC491CC23A1F0162F811183DF14
:10074000EC2FF0E0EE0FFF1FE85EFE4FA591B49195
:100750008FB7F894EC91111108C0D095DE23DC938B
:100760008FBFDF91CF911F910895DE2BF8CFCF93EC
:10077000DF9390E0FC01E858FE4F24918E5C9E4F81
:10078000FC0184918823D1F090E0880F991FFC012F
:10079000E250FF4FA591B491FC01E85EFE4FC59178
:1007A000D49161110EC09FB7F8948C91E22FE0951F
:1007B0008E238C932881E223E8839FBFDF91CF9122
:1007C00008958FB7F894EC91E22BEC938FBFF6CF9E
:1007D0003FB7F8948091CA049091CB04A091CC04C7
:1007E000B091CD0426B5A89B05C02F3F19F0019606
:1007F000A11DB11D3FBFBA2FA92F982F8827BC017B
:10080000CD01620F711D811D911D42E0660F771FA2
:10081000881F991F4A95D1F708958F929F92AF92A2
:10082000BF92CF92DF92EF92FF926B017C01D0DFFB
:100830004B015C01C114D104E104F104B1F0C8DF43
:10084000681979098A099B09683E734081059105F9
:1008500088F321E0C21AD108E108F10888EE880E79
:1008600083E0981EA11CB11CE5CFFF90EF90DF90B4
:10087000CF90BF90AF909F908F900895089590E093
:1008800080E008950F931F93CF93DF932091C404CA
:100890002F5F322F37703093C40420FF2BC020E825
:1008A00031FD2064347009F02062205FFC01EC010E
:1008B000239600E011E06485662329F070E0C8010A
:1008C0000E94F7166F5F6187322F369F030E30E06C
:1008D000311D1124311110C01682662311F06150B0
:1008E00061873196EC17FD0731F7DF91CF911F91AA
:1008F0000F91089520E0D4CF31503683EECF4F9240
:100900005F926F927F928F929F92AF92CF92DF927F
:10091000EF92FF920F931F93CF93DF933C01EB0174
:1009200057DFF30127853089621B730B6A3071052D
:10093000B8F3F894E881F9810EB108601EB1177F11
:100940001EB9CA848F814C2D481B842F4F839F84EE
:100950004A805B80FD84EC84DE84F394E394D3943A
:100960009E8138858984AB844181D20120E0622F49
:10097000722F7181442788947111780F08F47FEFEA
:1009800081958894F0FC470F47958894F1FC470FB8
:1009900047958894F2FC470F47958894F3FC470FDE
:1009A00047958894F4FC470F47958894F5FC470FCA
:1009B00047958894F6FC470F47958894F7FC470FB6
:1009C00047958894272FF110242F8C0D422F002C4F
:1009D0000EB900C000C047FF1EB97081222788945D
:1009E00000C0002C1EB97111790F00C0002C0EB987
:1009F00000C000C046FF1EB908F47FEF91958894AF
:100A000000C0002C1EB9E0FC270F00C0002C0EB95E
:100A100000C000C045FF1EB927958894E1FC270F50
:100A200000C0002C1EB92795889400C0002C0EB978
:100A300000C000C044FF1EB9E2FC270F2795889430
:100A400000C0002C1EB9E3FC270F00C0002C0EB91B
:100A500000C000C043FF1EB927958894E4FC270F0F
:100A600000C0002C1EB92795889400C0002C0EB938
:100A700000C000C042FF1EB9E5FC270F27958894EF
:100A800000C0002C1EB9E6FC270F00C0002C0EB9D8
:100A900000C000C041FF1EB927958894E7FC270FCE
:100AA00000C0002C1EB92795889400C0002C0EB9F8
:100AB00000C000C040FF1EB9472FE110422F980D23
:100AC00000C0002C1EB900C000C0002C0EB900C030
:100AD00000C047FF1EB972812227889400C0002CF5
:100AE0001EB97111730F00C0002C0EB900C000C0F8
:100AF00046FF1EB908F47FEFE90DF11D00C0002C80
:100B00001EB9D0FC270F00C0002C0EB900C000C0D9
:100B100045FF1EB927958894D1FC270F00C0002CF3
:100B20001EB92795889400C0002C0EB900C000C0E3
:100B300044FF1EB9D2FC270F2795889400C0002CD3
:100B40001EB9D3FC270F00C0002C0EB900C000C096
:100B500043FF1EB927958894D4FC270F00C0002CB2
:100B60001EB92795889400C0002C0EB900C000C0A3
:100B700042FF1EB9D5FC270F2795889400C0002C92
:100B80001EB9D6FC270F00C0002C0EB900C000C053
:100B900041FF1EB927958894D7FC270F00C0002C71
:100BA0001EB92795889400C0002C0EB900C000C063
:100BB00040FF1EB9472FD110422F319500C0002CA5
:100BC0001EB93A0D00C000C00EB900C000C047FFFA
:100BD0001EB971812227889400C0002C1EB97111A2
:100BE000780F00C0002C0EB900C000C046FF1EB92F
:100BF00008F47FEF8195889400C0002C1EB9F0FCAA
:100C0000270F00C0002C0EB900C000C045FF1EB960
:100C100027958894F1FC270F00C0002C1EB927955A
:100C2000889400C0002C0EB900C000C044FF1EB95B
:100C3000F2FC270F2795889400C0002C1EB9F3FC06
:100C4000270F00C0002C0EB900C000C043FF1EB922
:100C500027958894F4FC270F00C0002C1EB9279517
:100C6000889400C0002C0EB900C000C042FF1EB91D
:100C7000F5FC270F2795889400C0002C1EB9F6FCC0
:100C8000270F00C0002C0EB900C000C041FF1EB9E4
:100C900027958894F7FC270F00C0002C1EB92795D4
:100CA000889400C0002C0EB900C000C040FF1EB9DF
:100CB000472FF110422F8C0D00C0002C1EB9119748
:100CC00009F086CE20EE31E0D2010E943417DC011B
:100CD000CB01F4E0B695A79597958795FA95D1F74E
:100CE00030E020E0B901EAE94E9E040C611D5E9EF1
:100CF000600D711D1124650D711D860F971FA11DBB
:100D0000B11D893EE3E09E07A105B10508F434C09A
:100D1000885E9340A109B10942E0B695A7959795E1
:100D200087954A95D1F747E0849F080E211D949F2F
:100D3000200D311D1124290F311D6091C30470E075
:100D4000860F971F820F931F4091C6045091C704CE
:100D50006091C8047091C904292F3327420F531F93
:100D6000611D711D4093C6045093C7046093C8046D
:100D70007093C9048093C30478942ADDF301708BC7
:100D80006787DF91CF911F910F91FF90EF90DF90D8
:100D9000CF90AF909F908F907F906F905F904F908B
:100DA000089580E991E008956B9A08950F931F9339
:100DB000CF93DF93CDB7DEB762970FB6F894DEBF5F
:100DC0000FBECDBF8C01F901DC011C968C917A839A
:100DD00069835C834B835E834D8390819D87918182
:100DE0009E8792819F878130E9F4CE0101964ADD8A
:100DF00083E0888B1A8A198AD801ED91FC910484CA
:100E0000F585E02DBE016F5F7F4FC8011995629691
:100E10000FB6F894DEBF0FBECDBFDF91CF911F910B
:100E20000F9108951C861B861A86198618861F82C4
:100E3000DFCF0F931F93CF93DF93CDB7DEB76297CA
:100E40000FB6F894DEBF0FBECDBF8C01F901DC01F7
:100E50001C968C917A8369835C834B835E834D837C
:100E600090819D8791819E8792819F878130E1F457
:100E7000CE01019607DD188A1A8A198AD801ED91E8
:100E8000FC910484F585E02DBE016F5F7F4FC801A2
:100E9000199562960FB6F894DEBF0FBECDBFDF91F5
:100EA000CF911F910F9108951C861B861A86198673
:100EB00018861F82E0CF90E080E00895FC018585D0
:100EC00096850895CF93DF9300D000D0CDB7DEB7DD
:100ED000AB011C821D821E82DC01ED91FC91019010
:100EE000F081E02D19821A821B829E012F5F3F4FF5
:100EF000BE016C5F7F4F199526960FB6F894DEBF42
:100F00000FBECDBFDF91CF910895CF93DF93EC015A
:100F100060E08E81FFDB61E08E81FCDB60E08E8132
:100F2000F9DB8BE891E00197F1F7DF91CF9108951C
:100F3000CF92DF92EF92FF920F931F93CF93DF93A5
:100F40006C017C0187E0E80EF11CD0E0C0E0062FC8
:100F500010E0B8010C2E02C0759567950A94E2F76F
:100F60006170F70181917F01D5DB2196C430D105F5
:100F700081F7C601DF91CF911F910F91FF90EF9004
:100F8000DF90CF90C2CFCF92DF92EF92FF920F937C
:100F90001F93CF93DF93EC01F62E642F8C81BADB85
:100FA0008D818F3F11F060E0B5DB0F2D10E08F8554
:100FB00084FF23C06E0187E0C80ED11CF12CE12C08
:100FC000B8010E2C02C0759567950A94E2F761701E
:100FD000F60181916F019EDBFFEFEF1AFF0A88E0B7
:100FE000E816F10469F7CE01DF91CF911F910F91BF
:100FF000FF90EF90DF90CF9088CFB80184E0759597
:1010000067958A95E1F7CE0193DF6F2DCE01DF91D1
:10101000CF911F910F91FF90EF90DF90CF9088CFED
:1010200040E0682F82E996E0AECF81E0F9DF8BE304
:101030009FE10197F1F70895CF93DF93823029F470
:101040009091A10698609093A1068093A5061092B6
:10105000A60680E48093A70680E18093A80680E539
:101060008093A90661E08091960681DB80919706C6
:101070008F3F11F061E07BDB61E08091980677DBC8
:10108000C2E9D6E09E01225936408091A10684FD36
:101090000AC084E090E02196281739073CF461E00B
:1010A0008E8165DBEFCF88E090E0F5CF8BE39DE0AC
:1010B0000197F1F760E0809196062CDB60E080916B
:1010C000980628DB809197068F3F11F060E022DBC5
:1010D0008091A10684FD2CC063E082E996E028DFC0
:1010E000CBE4D6E4CE010197F1F763E082E996E024
:1010F0001FDF2197F1F763E082E996E019DF83E5CE
:1011000092E00197F1F762E082E996E011DF8091C9
:10111000A106806285DF84E08093A2068CE080DFF8
:1011200084DF82E08093A30686E0DF91CF9178CFC1
:10113000806276DF8BE496E40197F1F78091A10657
:1011400080626EDF83E592E00197F1F78091A1065E
:10115000806266DFDCCF9091A506691710F06FEF13
:10116000690FE62FF0E0EE56F94F9489890F8068F9
:1011700057CF41E008DF81E090E008958F929F9281
:10118000AF92BF920F931F93CF93DF93CDB7DEB78C
:10119000A1970FB6F894DEBF0FBECDBF19A24230A3
:1011A00008F44AE08E010F5D1F4F842E912CB12C64
:1011B000A12CA50194010E940A17E62FB901CA01CA
:1011C000EA303CF5E05DD801EE938D01232B242B12
:1011D000252B79F790E080E0109761F0FD010190F8
:1011E0000020E9F73197AF014A1B5B0BBD018EED83
:1011F00094E0F1D8A1960FB6F894DEBF0FBECDBF34
:10120000DF91CF911F910F91BF90AF909F908F90E2
:101210000895E95CD8CF8F929F92AF92BF92CF9200
:10122000DF92EF92FF920F931F93CF93DF93EC0126
:101230004A015B01C901B801A50194010E941D1575
:10124000A70196010E94EB154B015C016E01DD0FB9
:10125000EE08FF084AE0C701B601F7FE0CC06DE2D8
:101260008EED94E055D966277727CB016C197D095F
:101270008E099F094AE082DF61E08C2F4BDAC501BD
:10128000B4010E94BC16C9DA60E08C2F43DA62E335
:1012900070E080E090E0DF91CF911F910F91FF907F
:1012A000EF90DF90CF90BF90AF909F908F90B5CA96
:1012B000FC0101900020E9F73197AF01481B590B61
:1012C000BC0182E996E087C8CF93E091EE04F091EB
:1012D000EF0482E08083E091EA04F091EB04108255
:1012E000E091EC04F091ED049FEC90831092F604F1
:1012F000E091F204F091F304C6E0C083E091F004C1
:10130000F091F104908190619083E091F004F0916C
:10131000F104908198609083E091F004F091F104E1
:10132000908190689083E091F004F091F1049081B5
:101330009F7D9083F8948093B0008093B10094E6F1
:101340009093B3001092B2008093700078948093D1
:101350008905109255068091880560E008DA61E001
:1013600086E105DA61E08AE102DA61E08BE1FFD92A
:1013700061E08CE1FCD91092CF041092CE0482E09F
:101380005BDE60E082E0E7DE86E492E091DF61E030
:1013900080E0E1DE2091CE043091CF04C29FC001F5
:1013A000C39F900D11248A5A994F42D880914304CB
:1013B000811145C010923504109234048FEF809350
:1013C00038048093390480933A0480933B048093DB
:1013D0003C0480933D0481E080933E0410924004DD
:1013E00010923F041092370410923604809130041A
:1013F00090913104892B31F482E394E0909331048D
:1014000080933004E0912E04F0912F04309721F066
:1014100082E394E09583848382E394E090932F04A5
:1014200080932E0410924204109241048AE192E0CB
:10143000909333048093320481E0809343046B9A49
:101440008BE494E0909335048093340488E290E038
:101450009093400480933F0480917E0590917F0596
:10146000A0918005B0918105843C29E09207A105F7
:10147000B10520F484EC99E0A0E0B0E080937E0513
:1014800090937F05A0938005B0938105CF91089537
:10149000CF92DF92EF92FF920F931F93CF93DF9340
:1014A000EC01C3DD209709F049C060E082E053DE23
:1014B00083E592E0FDDE61E080E04DDE8FE592E0C5
:1014C000F7DEC12CD12C6AE7E62E64E4F62E9701F4
:1014D000860140E050E060E070E486E190E09BDE51
:1014E00061E080E038DE81E792E0E2DE970140E0F3
:1014F00050E060E47FE38AE190E08DDE61E080E02F
:101500002ADE82E892E0D4DE970140E050E060E815
:1015100070E48CE190E07FDE88DD82E593E0C8DE58
:101520006CEA7DE080E090E078D9DF91CF911F9167
:101530000F91FF90EF90DF90CF90C6CEC130D105D4
:1015400009F037C060E083E006DE83E992E0B0DEB8
:1015500061E080E000DE8FE592E0AADEC12CD12CB4
:101560005AE7E52E54E4F52E9701860140E050E05D
:1015700060EC7FE386E190E04EDE61E080E0EBDD51
:1015800081E792E095DE970140E050E060E87EE37D
:101590008AE190E040DE61E080E0DDDD8EE992E00E
:1015A00087DE970140E050E060E870E48BE190E076
:1015B000B2CFC230D10509F046C060E082E0CBDD99
:1015C00080EB92E075DE61E080E0C5DD8BEB92E0C0
:1015D0006FDEC12CD12C4AE7E42E44E4F42E9701AF
:1015E000860140E050E060E070E48DE190E013DEC1
:1015F00061E080E0B0DD8FE592E05ADE970140E0E7
:1016000050E060E070E486E190E005DE61E080E0BB
:10161000A2DD8EE992E04CDE970140E050E060E40C
:1016200070E48BE190E0F7DD61E080E094DD8DEC2B
:1016300092E03EDE9701860140E050E060E87EE304
:101640008AE190E068CFC330D10579F560E082E0AF
:1016500082DD8DED92E02CDE61E080E07CDD8AEEC3
:1016600092E026DEC12CD12C3AE7E32E34E4F32EAF
:101670009701860140E050E060E070E487E190E08F
:10168000CADD61E080E067DD86EF92E011DE970160
:1016900040E050E060E870E48EE190E0BCDD61E0A5
:1016A00080E059DD87E093E0C4CFCE010497029734
:1016B00038F460E082E04FDD89E193E0F9DD2CCF82
:1016C000C630D10549F560E082E045DD82E293E075
:1016D000EFDD61E080E03FDD8AEE92E0E9DDC12CE4
:1016E000D12C2AE7E22E24E4F22E9701860140E075
:1016F00050E060E070E487E190E08DDD61E080E043
:101700002ADD8BEB92E0D4DD970140E050E060E809
:1017100070E48DE190E0C2CFC730D105D9F460E02C
:1017200082E019DD80E393E0C3DD61E080E013DD5A
:101730008DE393E0BDDDC12CD12C9AE7E92E94E432
:10174000F92E9701860140E050E060EC7FE386E1EE
:1017500090E0E1CE289709F0AFCF60E082E0FBDCBB
:1017600087E493E0A5DD61E080E0F5DC8DE393E0C4
:101770009FDDC12CD12C8AE7E82E84E4F82E970156
:10178000860140E050E060EC7FE387E190E0C3CE6B
:101790000E948519EF92FF920F931F93CF93DF93CF
:1017A000EC017B01198218821B821A821D821C8225
:1017B000FB0101900020E9F731978F01061B170B01
:1017C000B8016F5F7F4F90E080E00E94A9180097FA
:1017D000B9F0998388831B830A832C813D81232B55
:1017E00011F4FC0110821D830C83B701888199815B
:1017F000DF91CF911F910F91FF90EF900C94921970
:1018000088819981009711F00E942018198218820E
:101810001D821C821B821A82DF91CF911F910F9132
:10182000FF90EF9008951F920F920FB60F92112420
:101830000BB60F922F933F934F935F936F937F93CA
:101840008F939F93AF93BF93EF93FF938EED94E0AD
:101850000E946602FF91EF91BF91AF919F918F918E
:101860007F916F915F914F913F912F910F900BBEA0
:101870000F900FBE0F901F9018951F920F920FB6EA
:101880000F9211240BB60F922F938F939F93EF9388
:10189000FF93E091EE04F091EF048081E091F40475
:1018A000F091F50482FD1DC090818091F7048F5F57
:1018B0008F732091F804821741F0E091F704F0E073
:1018C000E252FB4F958F8093F704FF91EF919F9128
:1018D0008F912F910F900BBE0F900FBE0F901F9006
:1018E00018958081F2CF1F920F920FB60F9211249C
:1018F0002F933F938F939F93AF93BF938091C60491
:101900009091C704A091C804B091C9043091C50456
:1019100023E0230F2D3758F50196A11DB11D20930B
:10192000C5048093C6049093C704A093C804B093E1
:10193000C9048091CA049091CB04A091CC04B091C9
:10194000CD040196A11DB11D8093CA049093CB04D0
:10195000A093CC04B093CD04BF91AF919F918F9190
:101960003F912F910F900FBE0F901F90189526E872
:10197000230F0296A11DB11DD2CF1F920F920FB659
:101980000F9211240BB60F922F933F934F935F93B7
:101990006F937F938F939F93AF93BF93CF93DF9377
:1019A000EF93FF932091880530E0F901E254FE4F58
:1019B0008491F901E858FE4FD491F901EE5CFE4F95
:1019C000C491CC2379F081110E942303EC2FF0E025
:1019D000EE0FFF1FEC51FF4FA591B491EC91ED2359
:1019E00081E009F480E020918B0530918C052F5F18
:1019F0003F4F30938C0520938B059091550694367C
:101A000018F095E09093890590918905933009F439
:101A10004EC0F0F4923021F190918A05992319F08B
:101A200081116DC02F9AFF91EF91DF91CF91BF91FE
:101A3000AF919F918F917F916F915F914F913F9166
:101A40002F910F900BBE0F900FBE0F901F90189507
:101A5000943009F448C09530F9F68111DDCF09C002
:101A60008111DACF20918B0530918C052436310518
:101A700028F410928C0510928B05CECF109255064B
:101A8000E091550691E09E0F90935506F0E020916D
:101A90008B0530918C05EE0FFF1FE857FA4F368308
:101AA000258310928C0510928B0593E019C081302C
:101AB00009F0B2CFE091550691E09E0F9093550644
:101AC000F0E020918B0530918C05EE0FFF1FE85759
:101AD000FA4F3683258310928C0510928B0594E083
:101AE0009093890599CF882359F220918B053091E5
:101AF0008C052536310508F48FCF95E0F1CF2F986E
:101B000092CFEEEDF4E01382128288EE93E0A0E033
:101B1000B0E084839583A683B7838CE292E09183BF
:101B2000808385EC90E09587848784EC90E09787AC
:101B3000868780EC90E0918B808B81EC90E0938B9A
:101B4000828B82EC90E0958B848B86EC90E0978B77
:101B5000868B118E128E138E148EEBE7F5E08FEFCD
:101B6000808312821182148613864FEF5FEFBA01D1
:101B70004783508761877287E8E8F5E09BE09083B0
:101B80001282E2E9F6E0138212822EE332E0318320
:101B9000208392E09483858383E0868384E0878337
:101BA00085E0808786E0818787E0828713861486B8
:101BB00015861686178681E03FDA6EE573E086E5C6
:101BC00096E0E8DD62E773E08CE596E0E3DD66E849
:101BD00073E082E696E0DEDD6AE973E088E696E08F
:101BE000D9DD6EEA73E08EE696E0D4DD64EC73E056
:101BF00084E796E0CFDD68ED73E08AE796E0CADD22
:101C00006FEE73E080E896E0C5DD65E074E086E89D
:101C100096E0C0DD69E174E08CE896E0BBCDCF933F
:101C2000DF93CDB7DEB72C970FB6F894DEBF0FBEAB
:101C3000CDBF789484B5826084BD84B5816084BD55
:101C400085B5826085BD85B5816085BD80916E005A
:101C5000816080936E00109281008091810082608B
:101C600080938100809181008160809381008091C8
:101C700080008160809380008091B10084608093B7
:101C8000B1008091B00081608093B000809191009C
:101C90008260809391008091910081608093910097
:101CA000809190008160809390008091A10082607B
:101CB0008093A1008091A10081608093A100809118
:101CC000A00081608093A0008091210182608093B8
:101CD0002101809121018160809321018091200167
:101CE00081608093200180917A00846080937A00E3
:101CF00080917A00826080937A0080917A0081607E
:101D000080937A0080917A00806880937A001092A4
:101D1000C100DADA22242394312C44244A94542C2E
:101D200032018DE895E09093DB048093DA04809192
:101D3000550690E09093DD048093DC048091890542
:101D4000853009F060C080918F059091900588588A
:101D500091098D35910508F085C080915506843034
:101D600009F054C080919105909192058097479712
:101D700008F04CC0809193059091940509970997BC
:101D800008F044C01092D9041092D8044092D404B0
:101D90005092D5046092D6047092D7043092D10448
:101DA0002092D0048091D4049091D504A091D604BF
:101DB000B091D7048D3BE2E49E07EFEFAE07B1058B
:101DC00009F460C508F024C5873E28E192072FEF8B
:101DD000A207B10509F462C508F001C58D3FF2E024
:101DE0009F07FFEFAF07B10509F461C504E010E0FC
:101DF0008F3E9041AF4FB10509F422C582E0809338
:101E00008905109255060E94F3028BCF80915506EA
:101E1000843440F18091910590919205825491090A
:101E20008E9700F590E080E040E050E0BA01FC01C0
:101E3000ED56FA4F20813181295031092930310581
:101E400088F4FC01EB56FA4F20813181265131098B
:101E50002131310530F1208131812650310927307F
:101E60003105C0F1809155068A3108F468C080912F
:101E70008D0590918E05843F914088F51092D9048C
:101E80001092D8044092D4045092D5046092D604A3
:101E90007092D70489E090E09093D1048093D004AD
:101EA00081CF440F551F661F771F4160049680380D
:101EB000910509F0BCCF80E290E09093D904809323
:101EC000D8044093D4045093D5046093D6047093FF
:101ED000D70464CF440F551F661F771FE7CF80914B
:101EE0008F059091900585974B9748F5E8E8F5E0C8
:101EF00082E090E040E050E0BA01A09155069C01DC
:101F00002F5F3F4FA217130609F00CF4F2C0218592
:101F10003285275031092730310508F0EAC0238582
:101F20003485235131092F30310508F4D5C023857C
:101F300034852A5031092930310508F4D5C0809103
:101F400055068A3108F43FC080918D0590918E0529
:101F50008032934008F492CF80918F059091900544
:101F6000C697869780F58091910590919205C697C6
:101F7000869748F5E8E8F5E083E090E040E050E03F
:101F8000BA01A09155069C012F5F3F4FA21713067F
:101F900009F00CF4D8C0238534852C5031092B303E
:101FA000310508F0D0C025853685255231092B3101
:101FB000310508F4BBC0258536852C5031092A30FF
:101FC000310508F4BBC080915506823238F180910A
:101FD0008F05909190050697079700F5E8E8F5E0E2
:101FE00082E090E040E050E0BA01DC0111962091DF
:101FF00055062A171B0609F00CF4D1C0218532853D
:102000002E5131092731310508F4B4C021853285BC
:102010002C5031092B30310508F4BBC08091550696
:102020008D3008F4EDC03C822B821A82198249E778
:1020300053E0BE016F5F7F4FCE0103960E947A018D
:10204000892B09F0DDC049E753E0BE016F5F7F4F88
:10205000CE0103960E947A01019709F0D1C049E7A9
:1020600053E0BE016F5F7F4FCE0103960E947A015D
:102070008C01892B09F0C4C0812C912C5401209132
:1020800055068B819C812817190609F00CF4A9C00C
:1020900049E753E0BE016F5F7F4FCE0103960E9478
:1020A0007A017C0149E753E0BE016F5F7F4FCE01AB
:1020B00003960E947A01A1E0EA16F10409F088C0B3
:1020C000892B09F09DC0880C991CAA1CBB1C689424
:1020D00080F80F5F1F4FD3CF440F551F661F771F28
:1020E00041600296349609CF440F551F661F771F33
:1020F000F8CF0197959587959093D9048093D8044C
:102100000C972CF41092D9041092D80418CF409355
:10211000D4045093D5046093D6047093D704E2E0BE
:10212000F0E0F093D104E093D0043CCE440F551F6F
:10213000661F771F41600296349623CF440F551FC8
:10214000661F771FF8CF0197959587959093D904CF
:102150008093D8040C972CF41092D9041092D804D0
:1021600032CF4093D4045093D5046093D604709337
:10217000D70490CE440F551F661F771F41602385FB
:1021800034853496235031092530310538F40296D0
:102190002CCF440F551F661F771FF1CFCD0101973C
:1021A000959587959093D9048093D80440972CF403
:1021B0001092D9041092D80431CF4093D404509394
:1021C000D5046093D6047093D7048AE090E064CE7F
:1021D000EF28B1F40197A1F4880C991CAA1CBB1C30
:1021E00078CF1093D9040093D8048092D4049092AD
:1021F000D504A092D604B092D70483E090E04CCEF0
:102200008091DC049091DD04181619060CF082C050
:10221000E091DA04F091DB043C822B82828193818D
:1022200089974E9708F076C082E090E09C838B837C
:10223000848195810B970A9708F06CC083E090E049
:102240009C838B831A8219824CEB51E0BE016F5F35
:102250007F4FCE0103960E947A018C01892B09F0F1
:1022600059C04CEB51E0BE016F5F7F4FCE0103962A
:102270000E947A01019709F04DC0812C912C5401E4
:102280002091DC043091DD048B819C8182179307BF
:102290000CF0E2C04CEB51E0BE016F5F7F4FCE010E
:1022A00003960E947A017C010330110539F14CEB51
:1022B00051E0BE016F5F7F4FCE0103960E947A010D
:1022C0006C010330110561F44CEB51E0BE016F5F0E
:1022D0007F4FCE0103960E947A01C816D906D1F429
:1022E000E114F10409F4ABC0EA94EF2899F4CD2885
:1022F00089F4880C991CAA1CBB1CABC04CEB51E0A8
:10230000BE016F5F7F4FCE0103960E947A01E816EF
:10231000F90669F2E091DA04F091DB04828193819D
:10232000C697869778F5848195814B97459750F5A8
:10233000DF0116967F0126ECE20EF11C20E030E072
:1023400040E050E060E070E080E090E00D911C9192
:1023500011970950110908301105A0F412960D913A
:102360001C911397015111090D30110508F483C018
:1023700012960D911C911397045011090530110507
:1023800008F49CC082819381895791098335910516
:1023900068F580915506893348F184819581CA9703
:1023A000899720F59F012A5F3F4FC12CD12C7601E0
:1023B00043E050E0D9016D917C9111976A50710909
:1023C0006930710598F412966D917C91139766515E
:1023D00071096131710508F474C012966D917C9198
:1023E000665071096730710508F49AC080915506EE
:1023F000823209F09AC0828193810A97099708F086
:1024000094C0A0915506B0E0A150B048AA0FBB1FE0
:10241000AE0FBF1F8D919C910A97099708F085C058
:102420001092D9041092D8044092D4045092D5044A
:102430006092D6047092D70488E090E02DCDCA94C3
:10244000CD2809F067CF880C991CAA1CBB1C689486
:1024500080F80F5F1F4F14CF1093D9040093D80456
:102460008092D4049092D504A092D604B092D7045E
:1024700084E090E011CD01E0FDD421601496AE150A
:10248000BF0509F063CF2093D4043093D504409363
:10249000D6045093D70400E208D52093D204309399
:1024A000D30487E090E09093D1048093D00480E33C
:1024B00090E09093D9048093D80474CC01E0DAD4EE
:1024C000DDCFD701C601880F991FAA1FBB1F6C0162
:1024D0007D016894C0F84E5F5F4F2C5F3F4F4B33D8
:1024E000510509F067CF9F012A583F4FD9012D911F
:1024F0003C912A5031092930310508F077CF2CE181
:1025000030E03093D9042093D804C092D404D09200
:10251000D504E092D604F092D7048CE090E0BCCCD5
:10252000CC0CDD1CEE1CFF1CD6CF82819381895719
:1025300091098335910560F580915506813240F10E
:1025400084819581CA97899718F59F012A5F3F4F2B
:10255000C12CD12C760143E050E0D9016D917C91E2
:1025600011976A5071096930710590F412966D9156
:102570007C911397665171096131710580F1129652
:102580006D917C91665071096730710508F454C0F3
:10259000828193818C549109C59708F081C0809104
:1025A0005506843009F04DC0848195818097479706
:1025B00008F047C0868197810997099708F041C0C4
:1025C0001092D9041092D8044092D4045092D504A9
:1025D0006092D6047092D7048BE090E05DCCD70176
:1025E000C601880F991FAA1FBB1F6C017D0168944B
:1025F000C0F84E5F5F4F2C5F3F4F4332510509F0EB
:10260000ACCF9F012A5B3F4FD9012D913C912A50BD
:1026100031092930310508F0BBCF20E130E030939B
:10262000D9042093D804C092D404D092D504E09267
:10263000D604F092D70400CFCC0CDD1CEE1CFF1C9E
:10264000D8CF80915506843458F18481958189547E
:102650009109C39728F59F012A5F3F4FBF016A5731
:102660007F4FC12CD12C7601D9014D915C911197EE
:10267000495051094930510598F412964D915C9199
:102680001397465151094131510508F484C01296FF
:102690004D915C91465051094730510508F49AC05C
:1026A0008091DC049091DD0498878F8306970CF469
:1026B000A5CBDF011296BE83AD8385ECC82E8DE9D4
:1026C000D82E8CE1E82E81E8F82E03E010E0ED81B1
:1026D000FE8164817581A080B18090E080E04CD162
:1026E00069877A878B879C87B50190E080E044D129
:1026F0004B015C012DEC3CEC4CE45FE39ED19B0173
:10270000AC0169857A858B859C8532D1F0E0E0E06B
:1027100087FD14C02DEC3CEC4CE45FE369857A85C1
:102720008B859C858AD19B01AC01C501B40120D168
:10273000E2E0F0E087FD02C0E1E0F0E0A7019601F1
:1027400063E971E080E091E043D36F01FF0FEE0891
:10275000FF08C626D726E826F9260F5F1F4F8D8172
:102760009E8102969E838D83AF81B8850A171B07D1
:1027700009F0ADCFC092D404D092D504E092D60433
:10278000F092D70480E290E09093D9048093D8042B
:102790008FEF9FEF81CBD701C601880F991FAA1F2A
:1027A000BB1F6C017D016894C0F82C5F3F4F62171E
:1027B000730709F059CF20E230E03093D904209319
:1027C000D804C092D404D092D504E092D604F092FA
:1027D000D70402CFCC0CDD1CEE1CFF1CE6CF8F3CD7
:1027E000E0E39E07EFEFAE07B10509F45AC0873C5E
:1027F000F8E39F07FFEFAF07B10509F449C08D3D2E
:102800009242AF4FB10509F0F9CA0AE010E018C0D2
:10281000853AEAE59E07EFEFAE07B105B1F1D8F4CE
:10282000853B2AE492072FEFA207B10509F442C0C5
:1028300009E010E08D3A9245AF4FB10509F0DECACC
:10284000C8016AE070E0D3D208171907B1F5C801D2
:102850000E94480AD3CA8538FAE79F07FFEFAF07FF
:10286000B105C9F08D3322EC92072FEFA207B10515
:10287000D9F087399846AF4FB10509F0BFCA10E0CB
:1028800000E0DECF07E010E0DBCF06E010E0D8CFBD
:1028900005E010E0D5CF03E010E0D2CF02E010E079
:1028A000CFCF01E010E0CCCF0CE010E0C9CF0BE0BF
:1028B00010E0C6CF08E010E0C3CF0B30110529F4BB
:1028C0008091CE049091CF04C3CF0E94150860E0A0
:1028D00082E00E94AB0886E492E00E94580961E021
:1028E00080E00E94AB088091CE049091CF040A3022
:1028F000110509F50996B8017AD29093CF04809317
:10290000CE0446E0489F9001499F300D1124C90133
:102910008A5A994F0E9418022091CE043091CF0418
:1029200046E0429FC001439F900D11248A5A994F5F
:102930000E94180263CA0C30110571F701966AE013
:1029400070E055D29093CF048093CE04E5CFCF931F
:10295000DF93C2E9D6E0269788819981009709F034
:102960006FD386E0C635D807B1F7DF91CF910895D0
:1029700040D008F481E00895E89409C097FB3EF444
:1029800090958095709561957F4F8F4F9F4F9923BC
:10299000A9F0F92F96E9BB279395F695879577953A
:1029A0006795B795F111F8CFFAF4BB0F11F460FFFA
:1029B0001BC06F5F7F4F8F4F9F4F16C0882311F052
:1029C00096E911C0772321F09EE8872F762F05C066
:1029D000662371F096E8862F70E060E02AF09A9501
:1029E000660F771F881FDAF7880F9695879597F9F6
:1029F0000895990F0008550FAA0BE0E8FEEF161690
:102A00001706E807F907C0F012161306E407F507E2
:102A100098F0621B730B840B950B39F40A2661F056
:102A2000232B242B252B21F408950A2609F4A140F9
:102A3000A6958FEF811D811D08950BD078C069D0B8
:102A400028F06ED018F0952309F05AC05FC0112409
:102A5000A2C07ED0A0F3959FD1F3950F50E0551FF3
:102A6000629FF001729FBB27F00DB11D639FAA27E3
:102A7000F00DB11DAA1F649F6627B00DA11D661F32
:102A8000829F2227B00DA11D621F739FB00DA11D53
:102A9000621F839FA00D611D221F749F3327A00D0D
:102AA000611D231F849F600D211D822F762F6A2FA9
:102AB00011249F5750408AF0E1F088234AF0EE0F2E
:102AC000FF1FBB1F661F771F881F91505040A9F73B
:102AD0009E3F510570F014C05EC05F3FECF3983E1E
:102AE000DCF3869577956795B795F795E7959F5FA2
:102AF000C1F7FE2B880F911D9695879597F908953C
:102B000097F99F6780E870E060E008959FEF80ECA0
:102B1000089500240A941616170618060906089543
:102B200000240A9412161306140605060895092EA9
:102B30000394000C11F4882352F0BB0F40F4BF2B18
:102B400011F460FF04C06F5F7F4F8F4F9F4F089558
:102B500057FD9058440F551F59F05F3F71F047954E
:102B6000880F97FB991F61F09F3F79F08795089533
:102B7000121613061406551FF2CF4695F1DF08C052
:102B8000161617061806991FF1CF8695710561056F
:102B900008940895E894BB2766277727CB0197F917
:102BA000089509D0A59F900DB49F900DA49F800D0E
:102BB000911D11240895A29FB001B39FC001A39F4E
:102BC000700D811D1124911DB29F700D811D112466
:102BD000911D08955058BB27AA270ED0A8CF99DF82
:102BE00030F09EDF20F031F49F3F11F41EF48ECFC1
:102BF0000EF4E095E7FB84CFE92FAADF80F3BA1744
:102C0000620773078407950718F071F49EF5C2CF29
:102C10000EF4E0950B2EBA2FA02D0B01B9019001F7
:102C20000C01CA01A0011124FF27591B99F0593F3B
:102C300050F4503E68F11A16F040A22F232F342F83
:102C40004427585FF3CF469537952795A795F040D1
:102C50005395C9F77EF41F16BA0B620B730B840BE6
:102C6000BAF09150A1F0FF0FBB1F661F771F881F9E
:102C7000C2F70EC0BA0F621F731F841F48F48795F6
:102C800077956795B795F7959E3F08F0B3CF9395E5
:102C9000880F08F09927EE0F9795879508950CD027
:102CA00046CF3EDF40F035DF30F021F45F3F19F0D2
:102CB00027CF511170CF2ACF4BDF98F39923C9F357
:102CC0005523B1F3951B550BBB27AA276217730732
:102CD000840738F09F5F5F4F220F331F441FAA1FE6
:102CE000A9F333D00E2E3AF0E0E830D091505040A6
:102CF000E695001CCAF729D0FE2F27D0660F771F54
:102D0000881FBB1F261737074807AB07B0E809F035
:102D1000BB0B802DBF01FF2793585F4F2AF09E3FCA
:102D2000510568F0EDCE37CF5F3FECF3983EDCF312
:102D3000869577956795B795F7959F5FC9F7880F43
:102D4000911D9695879597F90895E1E0660F771F95
:102D5000881FBB1F621773078407BA0720F0621B26
:102D6000730B840BBA0BEE1F88F7E095089504D01F
:102D70006894B11110CF0895F3DE88F09F5790F05A
:102D8000B92F9927B751A0F0D1F0660F771F881F90
:102D9000991F1AF0BA95C9F712C0B13081F0FADE66
:102DA000B1E00895F7CE672F782F8827B85F39F004
:102DB000B93FCCF3869577956795B395D9F73EF4EF
:102DC00090958095709561957F4F8F4F9F4F089597
:102DD000DB018F939F93E5DEBF91AF91A29F800DA2
:102DE000911DA39F900DB29F900D1124089597FB04
:102DF000072E16F4009406D077FD08D071D007FC9A
:102E000005D03EF4909581959F4F089570956195FA
:102E10007F4F0895A1E21A2EAA1BBB1BFD010DC016
:102E2000AA1FBB1FEE1FFF1FA217B307E407F5077A
:102E300020F0A21BB30BE40BF50B661F771F881F56
:102E4000991F1A9469F760957095809590959B01EC
:102E5000AC01BD01CF010895EE0FFF1F881F8BBF8E
:102E60000790F691E02D1994A6DEB7FF0895821B16
:102E7000930B0895002E083090F0982F872F762F0F
:102E8000652F542F432F322F22270850F4CF220FC3
:102E9000331F441F551F661F771F881F991F0A95F0
:102EA000B2F7002D089597FD1094002E083098F089
:102EB0000850232F342F452F562F672F782F892F17
:102EC000912DF4CF1594979587957795679557959C
:102ED0004795379527950A95AAF71124002D08954F
:102EE000AA1BBB1B51E107C0AA1FBB1FA617B70730
:102EF00010F0A61BB70B881F991F5A95A9F780954C
:102F00009095BC01CD0108950F931F93CF93DF934C
:102F10008230910510F482E090E0E091AC06F091EF
:102F2000AD0630E020E0B0E0A0E0309799F4211544
:102F3000310509F44AC0281B390B24303105D8F576
:102F40008A819B816115710589F1FB0193838283DD
:102F5000FE0111C040815181028113814817590738
:102F6000E0F04817590799F4109761F012960C9306
:102F7000129713961C933296CF01DF91CF911F9138
:102F80000F9108950093AC061093AD06F4CF211570
:102F9000310551F04217530738F0A901DB019A01BE
:102FA000BD01DF01F801C1CFEF01F9CF9093AD066C
:102FB0008093AC06CDCFFE01E20FF31F8193919376
:102FC0002250310939832883D7CF2091AA06309126
:102FD000AB06232B41F4209102023091030230937F
:102FE000AB062093AA062091000230910102211520
:102FF000310541F42DB73EB74091040250910502CE
:10300000241B350BE091AA06F091AB06E217F307FB
:10301000A0F42E1B3F0B2817390778F0AC014E5F48
:103020005F4F2417350748F04E0F5F1F5093AB06D4
:103030004093AA06819391939FCFF0E0E0E09CCF6C
:10304000CF93DF930097E9F0FC013297138212824D
:10305000A091AC06B091AD06ED0130E020E01097F4
:10306000A1F420813181820F931F2091AA06309113
:10307000AB062817390709F061C0F093AB06E0935F
:10308000AA06DF91CF910895EA01CE17DF07E8F590
:103090004A815B819E0141155105B1F7E901FB832E
:1030A000EA8349915991C40FD51FEC17FD0761F4CC
:1030B000808191810296840F951FE901998388830D
:1030C000828193819B838A83F0E0E0E012968D9168
:1030D0009C9113970097B9F52D913C911197CD01D3
:1030E0000296820F931F2091AA063091AB062817F3
:1030F000390739F6309751F51092AD061092AC06AB
:10310000B093AB06A093AA06BCCFD383C283408101
:103110005181840F951FC817D90761F44E5F5F4F27
:1031200088819981480F591F518340838A819B81EF
:10313000938382832115310509F0B0CFF093AD065A
:10314000E093AC069ECFFD01DC01C0CF138212825A
:10315000D7CF4F925F926F927F928F929F92AF9252
:10316000BF92CF92DF92EF92FF920F931F93CF9374
:10317000DF938C01009791F4CB01DF91CF911F91E8
:103180000F91FF90EF90DF90CF90BF90AF909F9006
:103190008F907F906F905F904F90B6CEFC01E60FBE
:1031A000F71F9C0122503109E217F30708F4AAC067
:1031B000D901CD91DC911197C617D70718F1C53009
:1031C000D10570F0CE0104978617970748F0C61B0B
:1031D000D70B2297C193D1936D937C93CF0130DFAE
:1031E000C801DF91CF911F910F91FF90EF90DF9079
:1031F000CF90BF90AF909F908F907F906F905F9097
:103200004F9008955B01AC1ABD0A4C018C0E9D1EB7
:10321000A091AC06B091AD06512C412CF12CE12CC3
:10322000109731F58091AA069091AB068815990503
:1032300009F05CC04616570608F058C0809100029D
:1032400090910102009741F48DB79EB7409104021E
:1032500050910502841B950BE817F90708F052C03E
:10326000F093AB06E093AA06F90171836083B8CFAF
:103270008D919C91119712966C90129713967C9059
:103280001397A815B90559F56C0142E0C40ED11C7D
:10329000CA14DB0420F1AC014A195B09DA01129669
:1032A000159780F06282738251834083D9016D93B8
:1032B0007C93E114F10471F0D7011396FC93EE9323
:1032C00012978ECF22968C0F9D1FF90191838083D8
:1032D000F301EFCFF093AD06E093AC0681CF481633
:1032E000590608F42C017D01D3019ACFCB010CDEE5
:1032F0007C01009739F0AE01B8010BD0C801A0DE07
:1033000087016ECF10E000E06BCF81E090E0F89491
:1033100010C0FB01DC0102C001900D9241505040F1
:10332000D8F70895FB01DC0101900D920020E1F730
:10333000089511E0C3E0D1E000E005C0802FFE0158
:103340008BDD2196011DC430D10780E00807B1F75D
:04335000F894FFCF1F
:103354000000AE06800000000000C80BC80BC80BBC
:1033640062075E075B07000000001907D606D40653
:1033740062075E07D1067F04000000008802EB01AB
:103384002002D40251022F02430200000000B908B7
:10339400EB013F043E0453656C6563742044726919
:1033A4006E6B004D6F73636F77204D756C650050C5
:1033B4006F7572696E6720766F646B6120202020C0
:1033C40000506F7572696E67206C696D65202020EE
:1033D4002000646973702E2067696E676572626588
:1033E400657200566F646B61204372616E00506FAA
:1033F4007572696E67206372616E626572727900BC
:1034040042617920427265657A6500506F75726910
:103414006E672070696E656170706C650053706CC6
:10342400617368206C696D65202020200052554D21
:1034340020414E4420434F4B4500506F7572696ED6
:10344400672072756D00506F7572696E6720636FC7
:103454006B65202020200053706C617368206C69B8
:103464006D65202020202020004E4F5420594554C3
:10347400210050494E454150504C452052554D0075
:10348400312073686F7420766F646B6100506F75C0
:1034940072696E672E2E00312073686F7420727506
:1034A4006D002020202020456E6A6F792100302E87
:1034B400204D6F73636F77204D756C65202020203D
:1034C4002000312E20566F646B61204372616E20A0
:1034D400202020202000322E204261792042726573
:1034E400657A6520202020202000332E2052756D1F
:1034F400202620636F6B6520202020202000342E9E
:10350400204F6C642046617368696F6E6564202087
:1035140020202000352E204D61692054616920202F
:103524002020202020202000362E2050696E656146
:1035340070706C652052756D20202020202000378B
:103544002E20566F646B6120202020202020202014
:103554002020202000382E2052756D20202020208D
:10356400202020202020202000392E205465717531
:0E357400696C612020202020202020200000F3
:00000001FF
